:100000000C9469010C9491010C9491010C94C20917
:100010000C94C2090C94C2090C9491010C949101A6
:100020000C9491010C9491010C9491010C94910108
:100030000C9491010C9491010C9491010C949101F8
:100040000C9478090C9491010C94FA080C94D4083F
:100050000C9491010C9491010C9491010C949101D8
:100060000C9491010C9491014D065F06620669069D
:1000700070069E06A506B206BF06CB06CB06CB06CB
:10008000CB06CB06CB06CB06CB06CB06CB06CB06E8
:10009000CB06CB06CB06CB06CB06CB06CB06CB06D8
:1000A000CB06CB06CB06CB064D065A065F0662068C
:1000B00069067006770684069106000000080002B3
:1000C00001000003040700000000000000002D2DC7
:1000D0002D2D2D2D2D2D2D2D2D2D2D2D2D2D2D2D50
:1000E0002D2D2D2D2D2D2D2D2D2D2D2D2D2D2D2D40
:1000F0002D2D2D2D2D2D2D2D2D2D2D2D2D2D2D2D30
:100100002D2D2D2D2D2D2D2D2D2D2D2D2D2D2D2D1F
:100110002D2D2D2D2D2D2D2D2D2D2D2D2D2D2D2D0F
:100120002D2D2D2D2D2D2D2D2D2D2D2D2D2D2D002C
:1001300020202020202020202020202864656729DE
:1001400020202020202028646567292020202020CE
:1001500020204167652020202020202020202020F2
:1001600020202020202020202020204167652020E2
:1001700020286D2920202052582020202020205285
:100180005820202020202020204661696C005361E7
:1001900074732048444F5020204C61746974756416
:1001A000652020204C6F6E6769747564652020207F
:1001B000466978202044617465202020202020207A
:1001C00054696D6520202020204461746520204101
:1001D0006C7420204368617273202053656E7465CF
:1001E0006E6365732020436865636B73756D006291
:1001F00079204572616E204B6C65696E65720042B4
:1002000061736564206F6E2054696E794750532B7B
:100210002B206279204D696B616C204861727400FB
:1002200046697273742074657374206F662052750A
:100230006E4D6174652047505320547261636B6545
:10024000720052756E4D6174652E696E6F002A2AB8
:100250002A2A2A2A2A2A20002A2A2A2A2A2A2A2A32
:100260002A2A20004E6F2047505320646174612079
:1002700072656365697665643A20636865636B20BF
:10028000776972696E670000000000250028002B66
:100290000000000000240027002A000000000023C6
:1002A00000260029000404040404040404020202D9
:1002B00002020203030303030301020408102040A7
:1002C0008001020408102001020408102000010E21
:1002D000F70D11241FBECFEFD8E0DEBFCDBF11E078
:1002E000A0E0B1E0E8E6FBE202C005900D92AE3876
:1002F000B107D9F723E0AEE8B1E001C01D92A43404
:10030000B207E1F711E0C8E6D1E004C02197FE0191
:100310000E94F00FC736D107C9F70E94F40A0C9467
:10032000A7150C940000FC01918D828D981761F047
:10033000828DDF01A80FB11D5D968C91928D9F5F1C
:100340009F73928F90E008958FEF9FEF0895FC01C7
:10035000918D828D981731F0828DE80FF11D858D7A
:1003600090E008958FEF9FEF0895FC01918D228D0D
:10037000892F90E0805C9F4F821B91098F73992792
:1003800008958BED91E00E94B50121E0892B09F4DD
:1003900020E0822F0895FC01848DDF01A80FB11D9C
:1003A000A35ABF4F2C91848D90E001968F739927AB
:1003B000848FA689B7892C93A089B1898C91806498
:1003C0008C93938D848D981306C00288F389E02D59
:1003D00080818F7D80830895EF92FF920F931F930A
:1003E000CF93DF93EC0181E0888F9B8D8C8D9813E8
:1003F00005C0E889F989808185FD24C0F62E0B8D22
:1004000010E00F5F1F4F0F731127E02E8C8DE81245
:100410000CC00FB607FCFACFE889F989808185FF07
:10042000F5CFCE010E94CB01F1CF8B8DFE01E80FFD
:10043000F11DE35AFF4FF0820B8FEA89FB8980811F
:10044000806207C0EE89FF896083E889F98980812D
:100450008064808381E090E0DF91CF911F910F91C4
:10046000FF90EF900895CF93DF93EC01888D882360
:10047000C9F0EA89FB89808185FD05C0A889B98911
:100480008C9186FD0FC00FB607FCF5CF808185FFEC
:10049000F2CFA889B9898C9185FFEDCFCE010E945A
:1004A000CB01E7CFDF91CF91089580E090E0892BD9
:1004B00029F00E94C10181110C94000008952FB70A
:1004C000F8946091D3017091D4018091D5019091FD
:1004D000D6012FBF08952091D9013091DA01281754
:1004E000390771F49091D7018091D801981741F0A4
:1004F000E091D701F0E0E257FE4F808190E008954F
:100500008FEF9FEF089508951F93CF93DF93DC0142
:100510005C962D913C915D972115310539F481E070
:1005200090E013969C938E9312973DC05196ED9157
:10053000FC91529750969C915097892F80951FB7A8
:100540005E964C915E9741FB772770F941FD60956F
:10055000F8944081772311F0492B01C04823408350
:10056000E9012197F1F748E0508160FF02C0592B63
:1005700001C058235083E9012197F1F76695415056
:1005800099F7772321F090818923808303C08081AC
:10059000982B90831FBF5C968D919C915D970197DE
:1005A000F1F721E030E0C901DF91CF911F9108956B
:1005B0002091D9013091DA012817390771F480911F
:1005C000D8012091D70190E0805C9F4F821B910958
:1005D00060E470E00E94BA0F089580E090E0089512
:1005E0002091D9013091DA0128173907B9F4909197
:1005F000D7018091D801981789F0E091D701F0E0F8
:10060000E257FE4F80812091D70130E02F5F3F4FAE
:100610002F7333272093D70190E008958FEF9FEF3A
:100620000895E091D901F091DA01E817F90769F42A
:10063000A389B4899C918589809589238C93109294
:10064000DA011092D90181E0089580E00895CF93F6
:10065000DF93EC018A859B85AC85BD858E839F8366
:10066000A887B9870E945F026A837B838C839D83FE
:1006700081E089838883DF91CF9108950E946F1272
:100680002F923F924F925F926F927F928F929F92A2
:10069000AF92BF92CF92DF92EF92FF920F931F9390
:1006A000CF93DF93D82FC92F8B010E94341524E6F6
:1006B00030E040E050E00E94CE0F49015A019B011A
:1006C000AC0160E876E988E990E00E94AA0F6B012E
:1006D0007C01F80191828082ED2FFC2F2191822FE5
:1006E000022E000C990BC0970A97C0F32E3239F5F1
:1006F0001F0180E8882E86E9982E88E9A82EB12C63
:100700009AE0492E512C612C712CF101C1911F01ED
:100710000C2E000CDD0BE097CA30D10580F4C5012A
:10072000B401A30192010E94CE0F49015A01DE01DA
:100730000E940110C60ED71EE81EF91EE6CFA5E0E6
:10074000B0E0A70196010E94F60F6F5F7F4F8F4FB9
:100750009F4F23E030E040E050E00E94CE0FF801D0
:1007600022833383448355831682DF91CF911F9177
:100770000F91FF90EF90DF90CF90BF90AF909F9040
:100780008F907F906F905F904F903F902F90089543
:10079000FF920F931F93CF93DF93EC01FF24F39409
:1007A00088818D3211F0F12C01C02196CE010E947A
:1007B00034159B01AC01A4E6B0E00E94F60FFE01E7
:1007C0004991242F042E000C330B205331092A3079
:1007D0003105A8F34E3241F52181022E000C330B76
:1007E000205331092A303105F8F44AE0429F800154
:1007F000439F100D1124012E000C220B330B600FB0
:10080000711F821F931F0281002E000C110B0053D9
:1008100011090A30110540F4012E000C220B330B94
:10082000600F711F821F931FFF2039F090958095F4
:10083000709561957F4F8F4F9F4FDF91CF911F91A3
:100840000F91FF9008954F925F926F927F928F92D7
:100850009F92AF92BF92CF92DF92EF92FF920F934F
:100860001F93CF93DF932B013C010E945F024B014A
:100870005C0182E0C82ED1E097E0D92E88E792E0B3
:100880000E94D802892B09F4ECC288E792E00E940A
:10089000F002C82F8091340390913503A091360364
:1008A000B09137030196A11DB11D8093340390933D
:1008B0003503A0933603B0933703C43209F4B0C2B2
:1008C000E0912E03C53234F4CA3071F0CD3009F016
:1008D000B4C20AC0CA3241F0CC3209F0AEC2809133
:1008E0001B038C2780931B03EF3008F08BC2F0E0D2
:1008F000E35EFC4F108280911C03882309F46BC1D6
:1009000020911D033FEB320F822F022E000C990B1A
:10091000363010F4C79707C02156263018F4875593
:10092000910901C0C097282F2295207F30911E0386
:100930004FEB430F832F032E000C990B463010F41E
:10094000C79707C03156363018F48755910901C052
:10095000C097820F90911B03891329C18091400396
:1009600090914103A0914203B09143030196A11DD0
:10097000B11D8093400390934103A0934203B09331
:10098000430380912F03882399F08091380390913D
:100990003903A0913A03B0913B030196A11DB11D0B
:1009A0008093380390933903A0933A03B0933B03A9
:1009B00010912C03112309F46BC0113009F0D0C041
:1009C0008091BF029091C002A091C102B091C20279
:1009D0008093BB029093BC02A093BD02B093BE0271
:1009E0000E945F026093C3027093C4028093C502A9
:1009F0009093C6021093BA021093B9028091CD026F
:100A00009091CE02A091CF02B091D0028093C90202
:100A10009093CA02A093CB02B093CC020E945F02D3
:100A20006093D1027093D2028093D3029093D40248
:100A30001093C8021093C70280912F03882309F4F2
:100A40008FC0E7EAF2E0A9E9B2E08D2D01900D92A6
:100A50008A95E1F7EEEAF2E0A0EAB2E08D2D01908E
:100A60000D928A95E1F70E945F026093B502709340
:100A7000B6028093B7029093B80210939802109335
:100A8000970285ED92E00E94270383EE92E066C014
:100A90008091CD029091CE02A091CF02B091D00270
:100AA0008093C9029093CA02A093CB02B093CC0268
:100AB0000E945F026093D1027093D2028093D302AE
:100AC0009093D402D093C802D093C70280912F0391
:100AD000882321F1E7EAF2E0A9E9B2E08D2D019047
:100AE0000D928A95E1F7EEEAF2E0A0EAB2E08D2DF0
:100AF00001900D928A95E1F70E945F026093B50222
:100B00007093B6028093B7029093B802D093980284
:100B1000D093970281EF92E00E942703809109030E
:100B200090910A03A0910B03B0910C0380930503ED
:100B300090930603A0930703B09308030E945F02FB
:100B40006093010370930203809303039093040363
:100B5000D0930003D093FF028DE093E00E9427031F
:100B600000913203109133030115110509F44AC1B4
:100B7000E0913203F091330366A177A1F80186A1D9
:100B800097A10E947412892B09F03CC1B801C801D9
:100B900040960E947D120E945F02F80160A371A33B
:100BA00082A393A3D5A3D4A302A513A5DDCF8091DF
:100BB0003C0390913D03A0913E03B0913F03019609
:100BC000A11DB11D80933C0390933D03A0933E0370
:100BD000B0933F0317C190912D03911146C060E47B
:100BE00071E08DE193E00E947412892B41F066E47C
:100BF00071E08DE193E00E947412892B19F4D09377
:100C00002C0315C06CE471E08DE193E00E94741236
:100C1000892B41F062E571E08DE193E00E9474124E
:100C2000892B19F410922C0302C0C0922C038091DE
:100C300030039091310390933303809332030091FA
:100C40003203109133030115110509F4DBC0F801DB
:100C5000E6A0F7A06DE173E0C7010E94741297FF50
:100C6000C5C0F80182A593A5E6CFE0912C03E23040
:100C700009F491C080911D03882309F48CC020E2FF
:100C8000E29FF0011124E92B3197E932F10508F0D8
:100C900082C0EC5CFF4F0C94F00F8DE193E00E945A
:100CA000C8036093CD027093CE028093CF029093DD
:100CB000D00271C091E0813409F043C043C067EABB
:100CC00072E009C091E0833509F090E09093AD02A5
:100CD00062C06EEA72E08DE193E00E9440035BC067
:100CE00091E0873509F090E09093B40254C08DE113
:100CF00093E00E94C8036093DF027093E002809348
:100D0000E1029093E20247C08DE193E00E94C803A4
:100D10006093ED027093EE028093EF029093F002E5
:100D20003AC08DE193E00E9434156093BF02709346
:100D3000C0028093C1029093C2022DC091E0813322
:100D40000CF490E090932F0326C08DE193E00E9475
:100D500034156093090370930A0380930B039093F7
:100D60000C0319C08DE193E00E94C8036093170340
:100D7000709318038093190390931A030CC08DE1AC
:100D800093E00E94C8036093FB027093FC0280937F
:100D9000FD029093FE02009132031091330301157E
:100DA000110581F1E0913203F091330366A177A13F
:100DB000F80186A197A10E947412892B19F5F801F8
:100DC00020A531A580912D0390E082179307D4F0E0
:100DD0002817390739F440E150E06DE173E0C801AC
:100DE0000E948412F80102A513A5D9CF6DE173E02A
:100DF000C7010E9474121816190624F410923303C6
:100E00001092320380912D038F5F80932D031092F7
:100E10002E0381E0CA3209F080E080931C032ECDBE
:100E200010922E0310922D0310921B03C0922C03DC
:100E300010921C0310922F0321CDEE3040F481E07C
:100E40008E0F80932E03F0E0E35EFC4FC083809111
:100E50001C03811113CD80911B03C827C0931B0372
:100E60000DCD0E945F02DC01CB0188199909AA0906
:100E7000BB0984159505A605B70508F4FFCCDF91DD
:100E8000CF911F910F91FF90EF90DF90CF90BF9087
:100E9000AF909F908F907F906F905F904F9008954C
:100EA000EF92FF920F931F93CF93DF93CDB7DEB7EF
:100EB000A0970FB6F894DEBF0FBECDBF790122E137
:100EC000E0E0F1E08E010F5F1F4FD80101900D921D
:100ED0002A95E1F7FE0173962EE0DF011D922A9517
:100EE000E9F7442389F09F938F937F936F9388E56D
:100EF00091E09F938F931F930F930E9493120FB6CD
:100F0000F894DEBF0FBECDBFF801EE0DFF1D1082BD
:100F1000F80101900020E9F7319720E2CF01801B12
:100F2000910B8E159F0514F42193F8CF1E141F0406
:100F30002CF4FE01EE0DFF1D80E28083C8010E94AB
:100F4000670A60E070E0CB010E942304A0960FB610
:100F5000F894DEBF0FBECDBFDF91CF911F910F91EF
:100F6000FF90EF9008952F923F924F925F926F9271
:100F70007F928F929F92AF92BF92CF92DF92EF9229
:100F8000FF920F931F93CF93DF936B017C01E901D5
:100F900041110CC0C230D1052CF08AE20E94A80A8F
:100FA0002197F8CF80E20E94A80AE7C09B01AC011C
:100FB0000E946A12882319F08CE591E01AC046015C
:100FC0005701E894B7F82FEF3FEF4FE75FE7C50110
:100FD000B4010E946A1281110FC02FEF3FEF4FE75B
:100FE0005FE7C501B4010E94991018162CF480E641
:100FF00091E00E94670A82C02FEF3FEF4FE75FE466
:10100000C701B6010E94F81118161CF484E691E09D
:10101000F0CF2FEF3FEF4FE75FECC701B6010E9423
:10102000991087FDF3CF20E030E0A901C701B60198
:101030000E94991087FF0AC08DE20E94A80A46010B
:101040005701B7FAB094B7F8B09402C046015701FF
:10105000302E712C60E070E080E09FE3731440F468
:1010600020E030E040E251E40E949E107394F6CFFD
:101070009B01AC01C501B4010E942D104B015C0124
:101080000E9417112B013C010E9446119B01AC01EB
:10109000C501B4010E942C104B015C014AE0C30160
:1010A000B2010E94B30A332021F088E691E00E9449
:1010B000670A702E772011F120E030E040E251E421
:1010C000C501B4010E94FD114B015C010E94171182
:1010D0001B01412C512C4AE0C201B1010E94B30A0C
:1010E000C201B1010E9446119B01AC01C501B401CE
:1010F0000E942C104B015C017A94DCCFC701B60131
:101100000E9410115B0177FF04C0AA24BB24A61A19
:10111000B70A20E030E0A901C701B6010E9499108A
:10112000082E000C990B8827990F881F9927019684
:10113000080F191F88EEA81683E0B8065CF484E651
:10114000A816B10454F48AE0A816B1044CF481E066
:1011500090E008C084E090E005C083E090E002C029
:1011600082E090E0080F191F0C171D0734F480E28D
:101170000E94A80A0F5F1F4FF7CF60E070E0CB011D
:10118000DF91CF911F910F91FF90EF90DF90CF9063
:10119000BF90AF909F908F907F906F905F904F9097
:1011A0003F902F900C9423041F920F920FB60F9232
:1011B00011242F933F934F935F936F937F938F935C
:1011C0009F93AF93BF93EF93FF938BED91E00E94BA
:1011D000CB01FF91EF91BF91AF919F918F917F9143
:1011E0006F915F914F913F912F910F900FBE0F9094
:1011F0001F9018951F920F920FB60F9211242F93E4
:101200008F939F93EF93FF93E091EB01F091EC01AB
:101210008081E091F101F091F20182FD12C0908194
:101220008091F4018F5F8F732091F501821751F047
:10123000E091F401F0E0E552FE4F958F8093F401C8
:1012400001C08081FF91EF919F918F912F910F901D
:101250000FBE0F901F90189590E0FC01E654FF4FD1
:101260003491FC01E754FD4F2491FC01EB55FD4FF7
:10127000E491EE2309F43BC0332339F1333091F08C
:1012800038F43130A9F0323001F584B58F7D12C0C9
:10129000373091F03830A1F03430B9F480918000CB
:1012A0008F7D03C0809180008F77809380000DC078
:1012B00084B58F7784BD09C08091B0008F7703C05B
:1012C0008091B0008F7D8093B000F0E0EE0FFF1FA3
:1012D000E957FD4FA591B4918FB7F894EC91611146
:1012E00003C020952E2301C02E2B2C938FBF089571
:1012F0001F920F920FB60F9211242F933F938F934B
:101300009F93AF93BF938091D3019091D401A0910B
:10131000D501B091D6013091D20123E0230F2D37B2
:1013200020F40196A11DB11D05C026E8230F0296E9
:10133000A11DB11D2093D2018093D3019093D401BC
:10134000A093D501B093D6018091CE019091CF01A9
:10135000A091D001B091D1010196A11DB11D809342
:10136000CE019093CF01A093D001B093D101BF9152
:10137000AF919F918F913F912F910F900FBE0F9042
:101380001F9018951F920F920FB60F9211242F9352
:101390003F934F935F936F937F938F939F93AF93FD
:1013A000BF93EF93FF93E091D901F091DA01309769
:1013B00009F451C0968DA685B785858591FF04C037
:1013C0009C91892329F447C09C91892309F043C04B
:1013D000A389B4899C918589809589238C9386897A
:1013E00097890197F1F7608D718DA685B785558531
:1013F00038E020E0CB010197F1F7822F90E095953E
:101400008795282F4C91452309F02068315091F79A
:10141000868D81FD20958091D80190E001968F7393
:1014200099273091D701381749F0A091D801B0E041
:10143000A257BE4F2C938093D80103C0868D816044
:10144000868F828D938D0197F1F7A389B4899C9142
:101450008589892B8C93FF91EF91BF91AF919F91DB
:101460008F917F916F915F914F913F912F910F904D
:101470000FBE0F901F901895CF92DF92EF92FF92C0
:101480000F931F93CF93DF936C017A018B01C0E020
:10149000D0E0CE15DF0589F0D8016D918D01D60120
:1014A000ED91FC910190F081E02DC6010995892B09
:1014B00011F47E0102C02196ECCFC701DF91CF91DC
:1014C0001F910F91FF90EF90DF90CF9008950097BC
:1014D00069F0FC0101900020E9F73197AF01481B4A
:1014E000590BBC018BED91E00C943C0A80E090E03C
:1014F00008950F931F93CF93DF938C01C0E0D0E04A
:10150000F801EC0FFD1F6491662371F0E091DB019F
:10151000F091DC010190F081E02D8BED91E00995D7
:10152000892B11F02196ECCFCE01DF91CF911F9145
:101530000F910895CF93DF930E94790AEC018AE618
:1015400091E00E94670A8C0F9D1FDF91CF91089553
:10155000E091DB01F091DC010190F081E02D682F3A
:101560008BED91E009948F929F92AF92BF920F936F
:101570001F93CF93DF93CDB7DEB7A1970FB6F89443
:10158000DEBF0FBECDBF19A2423008F44AE08E0183
:101590000F5D1F4F842E912CA12CB12CA50194011D
:1015A0000E94CE0FE62FB901CA0101501109EA309D
:1015B00014F4E05D01C0E95CD801EC93232B242BEB
:1015C000252B61F7C8010E94670AA1960FB6F8940F
:1015D000DEBF0FBECDBFDF91CF911F910F91BF90A6
:1015E000AF909F908F900895CF93DF93CDB7DEB7E4
:1015F000A5970FB6F894DEBF0FBECDBF789484B523
:10160000826084BD84B5816084BD85B5826085BDFE
:1016100085B5816085BD80916E00816080936E008C
:10162000109281008091810082608093810080917E
:10163000810081608093810080918000816080932F
:1016400080008091B10084608093B1008091B000EF
:1016500081608093B00080917A00846080937A00EA
:1016600080917A00826080937A0080917A00816014
:1016700080937A0080917A00806880937A0010923B
:10168000C100E091EB01F091EC0182E08083E091F8
:10169000E701F091E8011082E091E901F091EA019F
:1016A0008FEC80831092F301E091EF01F091F00153
:1016B00086E08083E091ED01F091EE018081806110
:1016C0008083E091ED01F091EE018081886080835C
:1016D000E091ED01F091EE01808180688083E091DE
:1016E000ED01F091EE0180818F7D80831092930255
:1016F00010929202109291021092900210928F0218
:1017000010928E028DE991E090939502809394025D
:1017100090918402963108F057C02DEB30E0309361
:101720008F0220938E022BE931E0309391022093B7
:1017300090022CE231E030939302209392022091A8
:101740006800983050F031E09E3008F430E081E0DD
:1017500001C0880F3A95EAF701C084E0822B80939C
:101760006800983038F09E3040F0963148F020E024
:1017700030E008C02DE630E005C02BE630E002C0C6
:101780002CE630E030938C0220938B02983030F4BA
:1017900081E001C0880F9A95EAF70EC0292F30E04A
:1017A0009E3018F42850310902C02E50310981E0D2
:1017B00001C0880F2A95EAF780938D0280919402E8
:1017C000909195020197F1F7809192029091930286
:1017D000892B21F18091D9019091DA0122E088379B
:1017E0009207E1F0009711F00E9411038091960298
:1017F0008E7F809396021092D8011092D70188E7CD
:1018000092E09093DA018093D901E0918B02F091FC
:101810008C02908180918D02892B808382E492E0FA
:101820000E949A0A80E292E00E949A0A8FEF91E069
:101830000E949A0A8FEE91E00E949A0A8AE691E04D
:101840000E94670A8EE891E00E949A0A80E391E084
:101850000E949A0A8EEC90E00E949A0A84E6C82EB2
:10186000D12CE12CF12C90E1892E97E2992EA12C1C
:10187000B12CCE0101961C014091FF021092000391
:10188000609105037091060380910703909108030E
:1018900025E030E00E94500770900D0310920E0377
:1018A00060911303709114038091150390911603B6
:1018B0000E94481120E030E048EC52E40E949E1063
:1018C00001E010E026E030E0472D0E94B307909140
:1018D000970299A3109298026091990270919A02CE
:1018E00080E090E00E9446112B013C0160919B0238
:1018F00070919C0280919D0290919E020E944611DF
:1019000028E23BE64EE65EE40E949E109B01AC019D
:10191000C301B2010E942D1020919F022111905805
:1019200006E010E02BE030E049A10E94B307A0914F
:101930009702A9A3109298026091A0027091A1024F
:1019400080E090E00E9446112B013C016091A202D0
:101950007091A3028091A4029091A5020E94461169
:1019600028E23BE64EE65EE40E949E109B01AC013D
:10197000C301B2010E942D102091A602211190589E
:1019800006E010E02CE030E049A10E94B30740914E
:101990009702442389F04DA30E945F024090B50254
:1019A0005090B6026090B7027090B8026419750941
:1019B000860997094DA103C06FEF7FEFCB0125E0AA
:1019C00030E00E9450078091B902811105C088E57E
:1019D00092E00E94790A3AC01092BA024090BB028B
:1019E0005090BC026090BD027090BE02C301B20173
:1019F000A70196010E94CE0F29A33AA34BA35CA393
:101A00006053784F7F936F93C301B201A501940196
:101A10000E94CE0F1F922F9369A17AA18BA19CA146
:101A2000A70196010E94CE0F7F936F93ADE6B1E0C0
:101A3000BF93AF933F922F920E949312C1010E94D5
:101A4000670A0FB6F894DEBF0FBECDBF8091C70204
:101A5000811105C08EE492E00E94790A40C0109284
:101A6000C8024090C9025090CA026090CB027090A8
:101A7000CC02C301B201A70196010E94CE0FCA0198
:101A8000B901A70196010E94CE0F7F936F93C30106
:101A9000B201A50194010E94CE0FCA01B901A701AC
:101AA00096010E94CE0F7F936F93C301B20120E491
:101AB00032E44FE050E00E94CE0F1F922F93ADE72B
:101AC000B1E0BF93AF933F922F920E949312C10156
:101AD0000E94670A0FB6F894DEBF0FBECDBF4091DB
:101AE000B902442389F04DA30E945F024090C302D3
:101AF0005090C4026090C5027090C60264197509C6
:101B0000860997094DA103C06FEF7FEFCB0125E058
:101B100030E00E94500760E070E0CB010E94230497
:101B20007090F1021092F2026091F7027091F80247
:101B30008091F9029091FA020E94481120E030E071
:101B400048EC52E40E949E1002E010E027E030E0F2
:101B5000472D0E94B3076091340370913503809143
:101B600036039091370326E030E041E00E945007B1
:101B7000609138037091390380913A0390913B034F
:101B80002AE030E041E00E94500760913C037091F0
:101B90003D0380913E0390913F0329E030E041E016
:101BA0000E9450078AE691E00E94670A68EE73E09F
:101BB00080E090E00E9423040E945F026938734134
:101BC0008105910560F08091340390913503A091D7
:101BD0003603B09137030A97A105B10518F00E94AA
:101BE00055024ACE84E692E00E949A0AF8CF84E336
:101BF00091E0909379028093780288E792E00C94C8
:101C00001103CF93DF931092DE011092DD0188EE75
:101C100093E0A0E0B0E08093DF019093E001A09317
:101C2000E101B093E20124E231E03093DC01209342
:101C3000DB0125EC30E03093E8012093E70124EC50
:101C400030E03093EA012093E90120EC30E030935A
:101C5000EC012093EB0121EC30E03093EE01209376
:101C6000ED0122EC30E03093F0012093EF0126ECFF
:101C700030E03093F2012093F1011092F4011092C0
:101C8000F5011092F6011092F7011092970210924E
:101C9000980210929A021092990210929B0210924E
:101CA0009C0210929D0210929E0210929F0210922E
:101CB000A1021092A0021092A2021092A30210920E
:101CC000A4021092A5021092A6021092A8021092ED
:101CD000A7021092A9021092AA021092AB021092CF
:101CE000AC021092AD021092AF021092AE021092AE
:101CF000B0021092B1021092B2021092B30210928E
:101D0000B4021092B9021092BA021092BB02109261
:101D1000BC021092BD021092BE021092C702109235
:101D2000C8021092C9021092CA021092CB021092FD
:101D3000CC021092D5021092D6021092DB021092C1
:101D4000DC021092DD021092DE021092E302109289
:101D5000E4021092E9021092EA021092EB02109251
:101D6000EC021092F1021092F2021092F70210921D
:101D7000F8021092F9021092FA021092FF021092E9
:101D800000031092050310920603109207031092AD
:101D9000080310920D0310920E0310921303109279
:101DA0001403109215031092160310921B03109245
:101DB0001C0322E020932C0310922D0310922E037B
:101DC00010922F03109231031092300310923303BC
:101DD000109232031092340310923503109236039E
:101DE00010923703109238031092390310923A037D
:101DF00010923B0310923C0310923D0310923E035D
:101E000010923F031092400310924103109242033C
:101E10001092430310921D0310927B0210927A02DB
:101E200080937C0290937D02A0937E02B0937F0208
:101E300084E391E0909379028093780210928F026C
:101E400010928E02109291021092900210929302C0
:101E50001092920210929502109294026091960252
:101E60006E7F6D7F609396026695617081E0682752
:101E700083E00E942C09ECEBF2E02491E8EAF2E026
:101E80008491882399F090E0880F991FFC01EF5608
:101E9000FD4FA591B491FC01E957FD4F85919491B7
:101EA0008FB7F894EC91E22BEC938FBFECEBF2E060
:101EB000E491E0938802E8EAF2E0E491F0E0EE0FCA
:101EC000FF1FE957FD4F8591949190938A0280936B
:101ED0008902EDEBF2E02491E9EAF2E084918823B3
:101EE000C1F090E0880F991FFC01EF56FD4FC5919E
:101EF000D491FC01E957FD4FA591B4919FB7F89497
:101F00008881E22FE0958E2388838C91E823EC93DF
:101F10009FBF8091960281FD04C061E084E00E9431
:101F20002C0984E080938402EDEBF2E0E491E093ED
:101F30008502E9EAF2E0E491F0E0EE0FFF1FE556DA
:101F4000FD4F859194919093870280938602DF9153
:101F5000CF910895DB018F939F930E94F60FBF915D
:101F6000AF91A29F800D911DA39F900DB29F900DE8
:101F70001124089597FB072E16F4009407D077FDDF
:101F800009D00E94091007FC05D03EF49095819578
:101F90009F4F0895709561957F4F0895A1E21A2E85
:101FA000AA1BBB1BFD010DC0AA1FBB1FEE1FFF1FFD
:101FB000A217B307E407F50720F0A21BB30BE40B4D
:101FC000F50B661F771F881F991F1A9469F7609594
:101FD0007095809590959B01AC01BD01CF0108954E
:101FE000EE0FFF1F0590F491E02D09940E941D1043
:101FF000A59F900DB49F900DA49F800D911D11245D
:102000000895B7FF0C94F60F0E94F60F821B930BF6
:102010000895AA1BBB1B51E107C0AA1FBB1FA6172F
:10202000B70710F0A61BB70B881F991F5A95A9F781
:1020300080959095BC01CD010895A29FB001B39FFA
:10204000C001A39F700D811D1124911DB29F700DC1
:10205000811D1124911D08955058BB27AA270E9465
:1020600044100C94BE110E94B01138F00E94B711B8
:1020700020F039F49F3F19F426F40C94AD110EF4BE
:10208000E095E7FB0C94A711E92F0E94CF1158F3BC
:10209000BA17620773078407950720F079F4A6F54D
:1020A0000C94F1110EF4E0950B2EBA2FA02D0B011C
:1020B000B90190010C01CA01A0011124FF27591B8D
:1020C00099F0593F50F4503E68F11A16F040A22F93
:1020D000232F342F4427585FF3CF46953795279504
:1020E000A795F0405395C9F77EF41F16BA0B620B03
:1020F000730B840BBAF09150A1F0FF0FBB1F661F4A
:10210000771F881FC2F70EC0BA0F621F731F841F8C
:1021100048F4879577956795B795F7959E3F08F0B2
:10212000B0CF9395880F08F09927EE0F9795879574
:1021300008950E94831108F481E008950E94B2106E
:102140000C94BE110E94B71158F00E94B01140F0DB
:1021500029F45F3F29F00C94A71151110C94F2114E
:102160000C94AD110E94CF1168F39923B1F355235C
:1021700091F3951B550BBB27AA276217730784079A
:1021800038F09F5F5F4F220F331F441FAA1FA9F330
:1021900035D00E2E3AF0E0E832D091505040E6951E
:1021A000001CCAF72BD0FE2F29D0660F771F881F7F
:1021B000BB1F261737074807AB07B0E809F0BB0B72
:1021C000802DBF01FF2793585F4F3AF09E3F510586
:1021D00078F00C94A7110C94F2115F3FE4F3983E51
:1021E000D4F3869577956795B795F7959F5FC9F76F
:1021F000880F911D9695879597F90895E1E0660FF0
:10220000771F881FBB1F621773078407BA0720F068
:10221000621B730B840BBA0BEE1F88F7E0950895D1
:102220000E9417116894B1110C94F21108950E9444
:10223000D71188F09F5798F0B92F9927B751B0F070
:10224000E1F0660F771F881F991F1AF0BA95C9F73A
:1022500014C0B13091F00E94F111B1E008950C94D6
:10226000F111672F782F8827B85F39F0B93FCCF389
:10227000869577956795B395D9F73EF490958095B7
:10228000709561957F4F8F4F9F4F0895E89409C0D7
:1022900097FB3EF490958095709561957F4F8F4F99
:1022A0009F4F9923A9F0F92F96E9BB279395F695AF
:1022B000879577956795B795F111F8CFFAF4BB0F2D
:1022C00011F460FF1BC06F5F7F4F8F4F9F4F16C091
:1022D000882311F096E911C0772321F09EE8872F1B
:1022E000762F05C0662371F096E8862F70E060E0D7
:1022F0002AF09A95660F771F881FDAF7880F969550
:10230000879597F90895990F0008550FAA0BE0E8F3
:10231000FEEF16161706E807F907C0F012161306A7
:10232000E407F50798F0621B730B840B950B39F4E7
:102330000A2661F0232B242B252B21F408950A264D
:1023400009F4A140A6958FEF811D811D089597F98D
:102350009F6780E870E060E008959FEF80EC08954B
:1023600000240A9416161706180609060895002474
:102370000A9412161306140605060895092E0394EE
:10238000000C11F4882352F0BB0F40F4BF2B11F462
:1023900060FF04C06F5F7F4F8F4F9F4F089557FDC1
:1023A0009058440F551F59F05F3F71F04795880FC3
:1023B00097FB991F61F09F3F79F08795089512165A
:1023C00013061406551FF2CF4695F1DF08C0161606
:1023D00017061806991FF1CF8695710561050894B7
:1023E0000895E894BB2766277727CB0197F90895CE
:1023F0000E94831108F48FEF08950E9410120C942C
:10240000BE110E94B01138F00E94B71120F0952340
:1024100011F00C94A7110C94AD1111240C94F2112D
:102420000E94CF1170F3959FC1F3950F50E0551F97
:10243000629FF001729FBB27F00DB11D639FAA2719
:10244000F00DB11DAA1F649F6627B00DA11D661F68
:10245000829F2227B00DA11D621F739FB00DA11D89
:10246000621F839FA00D611D221F749F3327A00D43
:10247000611D231F849F600D211D822F762F6A2FDF
:1024800011249F5750409AF0F1F088234AF0EE0F44
:10249000FF1FBB1F661F771F881F91505040A9F771
:1024A0009E3F510580F00C94A7110C94F2115F3FF0
:1024B000E4F3983ED4F3869577956795B795F795AD
:1024C000E7959F5FC1F7FE2B880F911D9695879525
:1024D00097F908950E948311880B990B089581E064
:1024E00090E0F8940C94A715FB01DC018D9101900C
:1024F00080190110D9F3990B0895FB01DC010190BB
:102500000D920020E1F70895FB01DC01415050409D
:1025100048F001900D920020C9F701C01D92415072
:102520005040E0F70895AEE0B0E0E9E9F2E10C9444
:102530007E150D891E8986E08C831A8309838FEFAF
:102540009FE79E838D83AE01475E5F4F6F89788DD5
:10255000CE0101960E94B6122F813885F801E20F54
:10256000F31F10822E96E4E00C949A15ACE0B0E0D4
:10257000ECEBF2E10C9470157C016B018A01FC011B
:1025800017821682838181FFBDC1CE0101964C0165
:10259000F7019381F60193FD859193FF81916F017E
:1025A000882309F4ABC1853239F493FD859193FFFB
:1025B00081916F01853229F4B70190E00E949E1449
:1025C000E7CF512C312C20E02032A0F48B3269F07F
:1025D00030F4803259F0833269F420612CC08D329E
:1025E00039F0803339F4216026C02260246023C092
:1025F000286021C027FD27C030ED380F3A3078F42D
:1026000026FF06C0FAE05F9E300D1124532E13C042
:102610008AE0389E300D1124332E20620CC08E3299
:1026200021F426FD6BC1206406C08C3611F42068AD
:1026300002C0883641F4F60193FD859193FF8191A4
:102640006F018111C1CF982F9F7D9554933028F44D
:102650000C5F1F4FFFE3F9830DC0833631F08337E2
:1026600071F0833509F05BC022C0F8018081898355
:102670000E5F1F4F44244394512C540115C0380160
:10268000F2E06F0E711CF801A080B18026FF03C03C
:10269000652D70E002C06FEF7FEFC5012C870E94AF
:1026A00093142C0183012C852F77222E17C038011B
:1026B000F2E06F0E711CF801A080B18026FF03C00C
:1026C000652D70E002C06FEF7FEFC5012C870E947F
:1026D00088142C012C852068222E830123FC1BC02A
:1026E000832D90E048165906B0F4B70180E290E0DF
:1026F0000E949E143A94F4CFF50127FC859127FEA1
:1027000081915F01B70190E00E949E1431103A94CC
:10271000F1E04F1A51084114510471F7E5C08436B5
:1027200011F0893639F5F80127FF07C06081718102
:10273000828193810C5F1F4F08C060817181072ED9
:10274000000C880B990B0E5F1F4F2F76722E97FF90
:1027500009C090958095709561957F4F8F4F9F4FE1
:102760002068722E2AE030E0A4010E94D614A82E20
:10277000A81844C0853729F42F7EB22E2AE030E015
:1027800025C0F22FF97FBF2E8F36C1F018F488359F
:1027900079F0B4C0803719F0883721F0AFC02F2FFF
:1027A0002061B22EB4FE0DC08B2D8460B82E09C0FE
:1027B00024FF0AC09F2F9660B92E06C028E030E0A3
:1027C00005C020E130E002C020E132E0F801B7FEB0
:1027D00007C060817181828193810C5F1F4F06C0A9
:1027E0006081718180E090E00E5F1F4FA4010E9424
:1027F000D614A82EA818FB2DFF777F2E76FE0BC0CF
:10280000372D3E7FA51450F474FE0AC072FC08C038
:10281000372D3E7E05C0BA2C372D03C0BA2C01C01F
:10282000B52C34FF0DC0FE01EA0DF11D808180330F
:1028300011F4397E09C032FF06C0B394B39404C0CA
:10284000832F867809F0B39433FD13C030FF06C0A0
:102850005A2CB31418F4530C5B18B32CB31468F44B
:10286000B70180E290E03C870E949E14B3943C85BF
:10287000F5CFB31410F43B1801C0312C34FF12C053
:10288000B70180E390E03C870E949E143C8532FFB4
:1028900017C031FD03C088E790E002C088E590E0F2
:1028A000B7010CC0832F867859F031FF02C08BE24C
:1028B00001C080E237FD8DE2B70190E00E949E14D6
:1028C000A51438F4B70180E390E00E949E145A9456
:1028D000F7CFAA94F401EA0DF11D8081B70190E0D1
:1028E0000E949E14A110F5CF332009F451CEB701F8
:1028F00080E290E00E949E143A94F6CFF701868120
:10290000978102C08FEF9FEF2C96E2E10C948C151B
:10291000FC010590615070400110D8F780959095AA
:102920008E0F9F1F0895FC016150704001900110AF
:10293000D8F7809590958E0F9F1F08950F931F9342
:10294000CF93DF93FB01238121FD03C08FEF9FEF26
:1029500028C022FF16C04681578124813581421745
:10296000530744F4A081B1819D012F5F3F4F318314
:1029700020838C93268137812F5F3F4F37832683B7
:1029800010C0EB01092F182F0084F185E02D099567
:10299000892BE1F68E819F8101969F838E83812F03
:1029A000902FDF91CF911F910F910895FA01AA27DF
:1029B000283051F1203181F1E8946F936E7F6E5F82
:1029C0007F4F8F4F9F4FAF4FB1E03ED0B4E03CD030
:1029D000670F781F891F9A1FA11D680F791F8A1F13
:1029E000911DA11D6A0F711D811D911DA11D20D07A
:1029F00009F468943F912AE0269F11243019305D34
:102A00003193DEF6CF010895462F4770405D419324
:102A1000B3E00FD0C9F7F6CF462F4F70405D4A3371
:102A200018F0495D31FD4052419302D0A9F7EACF39
:102A3000B4E0A6959795879577956795BA95C9F768
:102A400000976105710508959B01AC010A2E06945B
:102A50005795479537952795BA95C9F7620F731F14
:102A6000841F951FA01D08951F93FC019927882797
:102A7000BC01E89411911032E9F3193010F01E30C6
:102A8000C8F31B3251F01D3249F4689406C00E940D
:102A90005B15610F711D811D911D119110531A302D
:102AA000B0F33EF490958095709561957F4F8F4F70
:102AB0009F4F1F910895592F482F372F262F660FAC
:102AC000771F881F991F660F771F881F991F620F36
:102AD000731F841F951F660F771F881F991F089506
:102AE0002F923F924F925F926F927F928F929F921E
:102AF000AF92BF92CF92DF92EF92FF920F931F930C
:102B0000CF93DF93CDB7DEB7CA1BDB0B0FB6F894BC
:102B1000DEBF0FBECDBF09942A88398848885F84FC
:102B20006E847D848C849B84AA84B984C884DF806D
:102B3000EE80FD800C811B81AA81B981CE0FD11D51
:102B40000FB6F894DEBF0FBECDBFED01089511E0C2
:102B5000C8E6D1E004C0FE010E94F00F2196C936FC
:082B6000D107C9F7F894FFCF7B
:102B68002A2A2A2A2A2A2A2A2A2A2A2A2A2A2A2ABD
:102B78002A00000000000000000000000000000023
:102B880000000000EC013C0AB5019301A7013302E3
:102B98000000000084023C0AD802F0026B028302A3
:102BA8004750524D4300474E524D43004750474708
:102BB8004100474E47474100256C64006E616E0036
:102BC800696E66006F7666002E000D0A00253032A9
:102BD800642F253032642F253032642000253032AE
:0E2BE800643A253032643A2530326420000011
:00000001FF
